:103C000004E00EBF0FEF0DBF11241FBE84B78093D9
:103C1000860214BEA89599E288E10FB6F894A8959B
:103C2000809360000FBE90936000A895259A2D9810
:103C30002D9AA895579884B1887F84B95F9A85B1E9
:103C4000876085B9A89590D0A89599B183B1991F3F
:103C50009927991F90688770880F892B06D1A0D16A
:103C600037C084E891E004D1811132C08091850190
:103C7000803181F58091860190918701019651F5FF
:103C80008091880190918901029721F580918B01A3
:103C900090918C01A0918D01B0918E018A3C96404B
:103CA000A349B84DB9F4E4E0F1E001C0119281E01C
:103CB000E438F807D9F740E850E064E071E080E0CC
:103CC00090E07FD084E891E01FD1A89518D002C081
:103CD000B09BC7CF2D98A89588E10FB6F894809334
:103CE0006000109260000FBEE0E0F0E08491882355
:103CF00011F0099503C0E0E0FEE10994FFCF50D137
:103D0000B09931C084E891E0B3D08111F9CF8091AE
:103D100085018031A9F780918A01803821F5ABE8CF
:103D2000B1E0E4E0F1E08D91819381E0E438F807BF
:103D3000D1F78091860190918701880F991FAC017E
:103D400060E070E040930001509301016093020134
:103D50007093030140E850E064E071E032D084E801
:103D600091E0D2D0CCCF089581E290E09093C5004D
:103D70008093C40082E08093C00088E18093C100FA
:103D800086E08093C2005098589A529A5A9A0895A1
:103D90009091C00095FFFCCF8093C6008091C00039
:103DA00086FFFCCF089508D18091C00087FD05C033
:103DB000A89BFACF8FEF9FEF08958091C60090E007
:103DC0000895CF939C01240F351F21303C4308F008
:103DD000FFCFA895F999FECF23E0FC01209357006F
:103DE000E89507B600FCFDCFA0E0B0E0A417B5074A
:103DF000B0F4FB0120816E5F7F4F3196E08130E0AF
:103E00003E2BC1E0FD01E80FF91F0901C0935700E7
:103E1000E895112407B600FCFDCF1296E7CF25E008
:103E2000FC0120935700E89507B600FCFDCF81E127
:103E300080935700E895CF9108958627682F629563
:103E40006827062E669566956025062E6695602580
:103E50006770082E892F669507946795902D8627A1
:103E60000694679590258627089580938702089584
:103E7000CF92DF92EF92FF920F931F93CF93DF9336
:103E8000EC018FE99FE00197F1F700C000005A981C
:103E90007E010FEF1FEF6701CC1ADD0A84DF8F3F31
:103EA000EFEF9E0741F0F70181937F01682FC80172
:103EB000C4DF8C01F0CFF6E0CF16D104B8F0012BAF
:103EC000B9F4809187029881981314C08A819B81EC
:103ED0009827892798279B838A838C819D8198279F
:103EE000892798279D838C8380E005C081E003C0EB
:103EF00082E001C083E0DF91CF911F910F91FF908D
:103F0000EF90DF90CF900895EF92FF920F931F9361
:103F1000CF93DF931F92CDB7DEB77C015A9A809181
:103F2000870236DF609187028FEF9FEF86DF8C017B
:103F3000F70181812DDFF7016181C8017EDF8C01EE
:103F4000F701838125DFF701828122DFF701638199
:103F5000C80173DFF701628170DF8C01F701858191
:103F600017DFF701848114DFF7016581C80165DF80
:103F7000F701648162DF99830BDF9981892F08DF64
:103F80008FE99FE00197F1F700C000005A9880E0A8
:103F90000F90DF91CF911F910F91FF90EF900895B7
:103FA000E1E8F0E010828FEF86BB1092850010925E
:103FB000840084E08083089515BC14BC8FEF85BB1A
:083FC00016BC85E085BD0895E3
:0400000300003C00BD
:00000001FF
