:101C000004E00EBF0FEF0DBF11241FBE84B78093F9
:101C1000460214BEA89599E288E10FB6F894A895FB
:101C2000809360000FBE90936000A895259A2D9830
:101C30002D9AA895579884B1887F84B95F9A85B109
:101C4000876085B9A89590D0A89599B183B1991F5F
:101C50009927991F90688770880F892B06D1A0D18A
:101C600037C084E491E004D1811132C080914501F4
:101C7000803181F58091460190914701019651F59F
:101C80008091480190914901029721F580914B0183
:101C900090914C01A0914D01B0914E018A3C96402B
:101CA000A349B84DB9F424E031E0F901119280E480
:101CB000820F8E13FBCF40E450E064E071E080E0DF
:101CC00090E07FD084E491E01FD1A89518D002C0A5
:101CD000B09BC7CF2D98A89588E10FB6F894809354
:101CE0006000109260000FBEE0E0F0E08491882375
:101CF00011F0099503C0E0E0FEE00994FFCF50D158
:101D0000B09931C084E491E0B3D08111F9CF8091D2
:101D100045018031A9F780914A01803421F5ABE477
:101D2000B1E0E4E0F1E08D91819381E0E434F807E3
:101D3000D1F78091460190914701880F991FAC011E
:101D400060E070E040930001509301016093020154
:101D50007093030140E450E064E071E032D084E429
:101D600091E0D2D0CCCF089581E290E09093C5006D
:101D70008093C40082E08093C00088E18093C1001A
:101D800086E08093C2005098589A529A5A9A0895C1
:101D90009091C00095FFFCCF8093C6008091C00059
:101DA00086FFFCCF089508D18091C00087FD05C053
:101DB000A89BFACF8FEF9FEF08958091C60090E027
:101DC0000895CF939C01240F351F21303C4108F02A
:101DD000FFCFA895F999FECF23E0FC01209357008F
:101DE000E89507B600FCFDCFA0E0B0E0A417B5076A
:101DF000B0F4FB0120816E5F7F4F3196E08130E0CF
:101E00003E2BC1E0FD01E80FF91F0901C093570007
:101E1000E895112407B600FCFDCF1296E7CF25E028
:101E2000FC0120935700E89507B600FCFDCF81E147
:101E300080935700E895CF9108958627682F629583
:101E40006827062E669566956025062E66956025A0
:101E50006770082E892F669507946795902D8627C1
:101E600006946795902586270895809347020895E4
:101E7000CF92DF92EF92FF920F931F93CF93DF9356
:101E8000EC018FE99FE00197F1F700C000005A983C
:101E90007E010FEF1FEF6701CC1ADD0A84DF8F3F51
:101EA000EFEF9E0741F0F70181937F01682FC80192
:101EB000C4DF8C01F0CFF6E0CF16D104B8F0012BCF
:101EC000B9F4809147029881981314C08A819B814C
:101ED0009827892798279B838A838C819D819827BF
:101EE000892798279D838C8380E005C081E003C00B
:101EF00082E001C083E0DF91CF911F910F91FF90AD
:101F0000EF90DF90CF900895EF92FF920F931F9381
:101F1000CF93DF931F92CDB7DEB77C015A9A8091A1
:101F2000470236DF609147028FEF9FEF86DF8C011B
:101F3000F70181812DDFF7016181C8017EDF8C010E
:101F4000F701838125DFF701828122DFF7016381B9
:101F5000C80173DFF701628170DF8C01F7018581B1
:101F600017DFF701848114DFF7016581C80165DFA0
:101F7000F701648162DF99830BDF9981892F08DF84
:101F80008FE99FE00197F1F700C000005A9880E0C8
:101F90000F90DF91CF911F910F91FF90EF900895D7
:101FA000E1E8F0E010828FEF86BB1092850010927E
:101FB000840084E08083089515BC14BC8FEF85BB3A
:081FC00016BC85E085BD089503
:0400000300001C00DD
:00000001FF
